:100000000C945B000C949B000C9499000C94990048
:100010000C9499000C9499000C9499000C949900FC
:100020000C9499000C9499000C9499000C94A702DC
:100030000C94CD020C9499000C9499000C949900A6
:100040000C9499000C9499000C9477010C949900ED
:100050000C9499000C9499000C9499000C949900BC
:100060000C9499000C949900464154414C204552FF
:10007000524F523A204241444953525F766563746D
:100080002063616C6C65642C20756E70726F6365A3
:100090007373656420496E746572727570742E0A8C
:1000A00053544F5020457865637574696F6E2E0AFE
:1000B0000000E100F900832D8093570684B78093F8
:1000C000580614BE0FB6F894A89580916000886118
:1000D00080936000109260000FBE11241FBECFEF0E
:1000E000D8E0DEBFCDBF11E0A0E0B1E0E8E1F2E290
:1000F00002C005900D92A83FB107D9F726E0A8EFFE
:10010000B1E001C01D92A735B207E1F710E0CBE5E1
:10011000D0E004C02197FE010E94E70DC935D10748
:10012000C9F70E941D010C940A110E94DC000C9476
:100130000A110C941D0C1F920F920FB60F921124EE
:100140002F933F934F935F936F937F938F939F93DF
:10015000AF93BF93EF93FF939BB180E289278BB955
:1001600086E391E00E94120EFF91EF91BF91AF9153
:100170009F918F917F916F915F914F913F912F91BF
:100180000F900FBE0F901F9018958CE491E00E9485
:10019000120E559A5298E9E6F0E0808181608083E2
:1001A00080818D7F8083E89A7894089568EE73E06B
:1001B00080E090E00C94E7000E94C5000E94D60009
:1001C000FDCF60E070E088EF91E00C94FF009B01B0
:1001D000AC01A8EEB3E00E94DC0D22E09695879575
:1001E000779567952A95D1F720E030E0A9010C9426
:1001F000860A60E070E082E492E00C94FF00FC016B
:100200007183608308950FB6802DF894807890E014
:10021000089578940FB6802D807890E00895FF922D
:100220000F93F82E0FB7087FF02AFFBE0F91FF90B3
:10023000089580918C0290E008950E94F3020C943E
:100240005C040F931F93CF93DF93E901892BC9F5CA
:1002500030938E0220938D021093900200938F02B0
:100260001092C1001092C00086E08093C200DB01B2
:10027000CA0180589B47A14EBF4F23E0880F991FAA
:10028000AA1FBB1F2A95D1F79A01AB0164E0220F88
:10029000331F441F551F6A95D1F7BC01CD010E9441
:1002A000BA0D215031093093C5002093C400CD2BE5
:1002B00011F088E901C088E08093C10080E090E0FF
:1002C00002C08FEF9FEFDF91CF911F910F910895A3
:1002D000FB01460F571FE417F50741F08091C0005E
:1002E00085FFFCCF81918093C600F5CF08951F92C2
:1002F0000F920FB60F9211242F933F934F935F935A
:100300006F937F938F939F93AF93BF93EF93FF93DD
:1003100081E080938C026091C600E0918D02F091A3
:100320008E0280918F029091900209958091FD023A
:100330009091FE02892B31F00E94800410928C0271
:100340000E94B50B10928C02FF91EF91BF91AF917B
:100350009F918F917F916F915F914F913F912F91DD
:100360000F900FBE0F901F901895982F9F7021E04F
:1003700030E001C0220F9A95EAF76230D9F063307D
:1003800079F0611128C082958F7093E0899FF00108
:10039000112481A12095822381A382A1282317C043
:1003A00082958F7093E0899FF001112481A1282B01
:1003B00021A30EC082958F7093E0899FF0011124D4
:1003C00081A1922F9095892381A382A1282B22A31A
:1003D00080E090E008958FEF9FEF0895BC0181E0E9
:1003E00080938C02E0910201F09103019081AB01B6
:1003F0004F5F5F4F21E030E001C0220F4A95EAF7DE
:10040000209529232083E0910601F0910701809136
:1004100008019091090109958091FD029091FE02D9
:10042000892B31F00E94800410928C020E94B50B3F
:1004300010928C0208958F929F92AF92BF92CF92AA
:10044000DF92EF92FF920F931F93892BD9F4E9E685
:10045000F1E080E0C12C94E2D92E94EFE92EF12C4A
:1004600046015701019004C0B694A79497948794CD
:100470000A94D2F78F5F84169506A606B70629F070
:10048000853071F78FEF9FEF16C0E0910001F0917A
:1004900001011082118212821582148230930701A9
:1004A00020930601109309010093080180930A012B
:1004B000818380E090E01F910F91FF90EF90DF909B
:1004C000CF90BF90AF909F908F900895623071054C
:1004D0005CF52CE0289FF001299FF00D1124E050DD
:1004E000FF4F80819181DB011496AA0FBB1FA80FDB
:1004F000B91F11965C934E93A481B5812C916F5FC7
:100500007F4F81E090E001C0880F6A95EAF7982F4D
:10051000909592239C930280F381E02D9081892B0A
:10052000808381E090E008958FEF9FEF08952CE0A5
:10053000AC01249FC001259F900D1124FC01E050C7
:10054000FF4F0190F081E02D8481958108951F92E5
:100550000F920FB60F9211242F933F934F935F93F7
:100560006F937F938F939F93AF93BF93EF93FF937B
:1005700080E090E00E94EE01FF91EF91BF91AF917A
:100580009F918F917F916F915F914F913F912F91AB
:100590000F900FBE0F901F9018951F920F920FB6DD
:1005A0000F9211242F933F934F935F936F937F93F9
:1005B0008F939F93AF93BF93EF93FF9381E090E06E
:1005C0000E94EE01FF91EF91BF91AF919F918F91AA
:1005D0007F916F915F914F913F912F910F900FBE3F
:1005E0000F901F901895E1E6F0E080E8808310827C
:1005F0000E944F0C0E940F0C0E945F0C0C9409018A
:100600000895EB012091910230919202232B71F514
:1006100021E030E03093920220939102833091F4F4
:100620000EB6202D0DB6802D90E0922B9F938F93C8
:100630008EE691E09F938F930E94FC0D0F900F9098
:100640000F900F90DF93CF9385E891E09F938F9366
:100650000E94FC0D81EA91E09F938F930E94FC0D14
:100660000F900F900F900F900F900F900E9403012A
:100670000E9400030E94ED0A1092FE021092FD02F9
:10068000A091B902B091BA022091930230919402E4
:1006900080E090E020FD04C0369527950196FACFC2
:1006A000880F991FFC01E956FD4F0190F081E02D64
:1006B0000190F081E02D3697AE17BF07C9F0109773
:1006C00041F012968C9112978A3019F48BE01296B1
:1006D0008C938AE08283848195819093B802809381
:1006E000B702F093BA02E093B90281E090E0089576
:1006F00080E090E008950F931F93CF93DF93FC0168
:1007000082816A307105E0F18A3008F080C09F0173
:100710002A5F3F4F838190E0880F991FDC01A95623
:10072000BD4FCD91DC911197209751F048815981AF
:10073000578346830D90BC91A02D2D933C9302C00E
:1007400037832683DC01A956BD4F2D933C9381E06E
:1007500090E0038002C0880F991F0A94E2F7092EE7
:10076000000CAA0BBB0B00919302109194022091F4
:10077000950230919602802B912BA22BB32B3FC078
:100780008A3008F444C0A381B0E0AA0FBB1FA95669
:10079000BD4FCD91DC911197209769F088819981A7
:1007A000C817D90719F41D921C9205C0DC018D9160
:1007B0009C91998388832381A22FB0E0AA0FBB1F4D
:1007C000A956BD4F8D919C91892B09F581E090E050
:1007D00002C0880F991F2A95E2F780959095092EFF
:1007E000000CAA0BBB0B0091930210919402209174
:1007F00095023091960280239123A223B323809304
:10080000930290939402A0939502B0939602628310
:10081000DF91CF911F910F910895E091B902F0916E
:10082000BA0222812A3028F0238130E08217930710
:1008300068F40E941901892B39F081E090E09093CF
:10084000FE028093FD0208950C944F0B08950E94C0
:100850000301E091B702F091B802EE0FFF1FE554DB
:10086000FD4F118210828091FF0290910003019749
:10087000909300038093FF0260E070E08091B902E2
:100880009091BA020E947B031092BA021092B902B0
:100890000E944B0B0E94280C81EC91E09F938F9358
:1008A0000E94FC0D0E94DC000F900F9080E090E011
:1008B00008950E94F00AFDCF0E940301C0900C0130
:1008C000D0900D01E12CF12C09E514E02CE030E092
:1008D0004FE060E870E081E093E00E94BC04C090CB
:1008E0000E01D0900F010AE414E02CE030E047E064
:1008F00060E872E081E893E00E94BC040E944B0B28
:100900000E940301E091B902F091BA0222812A30DB
:1009100070F0E381F0E0EE0FFF1FE956FD4FA0817C
:10092000B181109721F02D913C91318320830E9459
:100930000F010C944F0BFB0122812A3028F06FEA43
:1009400071E083E00E9401036381AF014A5F5F4F62
:10095000DC012D913C912115310541F0D90116970B
:1009600013967C91671710F0C901F2CF3783268365
:10097000FC015183408308952F923F924F925F92E2
:100980006F927F928F929F92AF92BF92CF92DF929F
:10099000EF92FF920F931F93CF93DF9300D000D07D
:1009A000CDB7DEB740319CF54B013AE1831A91088F
:1009B000DC01A80DB91DBC83AB83FC0123FF09C07A
:1009C000AB81BC81EA17FB0730F4F183E0833296F8
:1009D000F7CF918380831601370158012A83498319
:1009E0002B017C010E9403016C01EDEBF2E001E0C0
:1009F00010E081919191892B61F00F5F1F4F0132BF
:100A00001105B9F7C6010E940F018FEB5EC084EE9D
:100A10005CC0F801EE0FFF1FE554FD4F8B819C81F8
:100A200091838083DC0115961C930E931497940197
:100A3000A701B301C5010E941E0BEB81FC819183CC
:100A40008083F58AE48A518E408E378A268A2981EE
:100A500023831282178216821186108613861286CD
:100A600015861486178616868FEF9FEF918B808BE5
:100A7000138A128A8091FF0290910003019690934D
:100A800000038093FF023A8130FF07C061E070E00D
:100A90008B819C810E947B0313C06BE070E08B8193
:100AA0009C810E947B03FA81F2FD0AC0C6010E946C
:100AB0000F012981822F220F990B0E940D0403C080
:100AC000C6010E940F01C80101C09FEF0F900F9057
:100AD0000F900F90DF91CF911F910F91FF90EF90AA
:100AE000DF90CF90BF90AF909F908F907F906F904E
:100AF0005F904F903F902F900895CF92DF92EF92AA
:100B0000FF92C0900706D0900806E0900906F0908A
:100B10000A0680E090E00E949702BC0180910706DF
:100B200090910806A0910906B0910A06C816D90648
:100B3000EA06FB0631F7CB01A0E0B0E0BC01CD0135
:100B40006C297D298E299F29FF90EF90DF90CF900F
:100B500008958F929F92AF92BF92CF92DF92EF92C1
:100B6000FF920F931F93CF93DF938C01EB010E94B1
:100B70007D054B015C01C0900B06D0900C06E09007
:100B80000D06F0900E060E947D05681579058A0510
:100B90009B0568F3F8016083718382839383C88225
:100BA000D982EA82FB82DF91CF911F910F91FF9052
:100BB000EF90DF90CF90BF90AF909F908F9008956F
:100BC00020910F0630911006232B39F4AB0160E021
:100BD00070E080E090E00C94660208950F931F93FC
:100BE000CF93DF93DC01E0910106F0910206C1E0B2
:100BF000D6E0309741F10681178120853185169620
:100C00004D915D916D917C911997041715072607F9
:100C1000370728F4EF010190F081E02DEACF0417A7
:100C200015072607370779F402811381248135815E
:100C300012964D915D916D917C91159740175107DA
:100C40006207730738F71196FC93EE93B983A88374
:100C5000DF91CF911F910F9108950F931F93CF9321
:100C6000DF938091070690910806A0910906B09144
:100C70000A0611968093070690930806A09309062A
:100C8000B0930A068091070690910806A091090684
:100C9000B0910A06892B8A2B8B2B99F480910B0635
:100CA00090910C06A0910D06B0910E060196A11D23
:100CB000B11D80930B0690930C06A0930D06B09384
:100CC0000E06E0910306F0910406F0930606E09309
:100CD00005061092040610920306A0910106B09139
:100CE0000206ED0180E090E0209781F140910B0633
:100CF00050910C0660910D0670910E060E811F81B9
:100D000028853985401751076207730738F4D09357
:100D10000206C09301060097F1F46DC0009107062A
:100D2000109108062091090630910A064A815B81DC
:100D30006C817D814427552740175107620773074F
:100D400031F7CE010990D881C02DCECF1092020686
:100D500010920106E0CFEC0119821882309709F455
:100D600046C0109791F0028113812481358112963B
:100D70004D915D916D917C911597401751076207D8
:100D8000730718F49A2F8B2F02C09E2F8F2FC92F15
:100D9000282FD22F0190F081E02D0D90BC91A02D35
:100DA000309719F4B983A8831DC0109719F4F983FB
:100DB000E88318C0028113812481358112964D91F8
:100DC0005D916D917C9115974017510762077307EC
:100DD00018F43A2F2B2F02C03E2F2F2F3883298350
:100DE000C32FD7CF909305068093060604C0B09317
:100DF0000606A0930506DF91CF911F910F910895EC
:100E00008F929F92AF92BF92CF92DF92EF92FF921A
:100E100081E090E09093100680930F068091050684
:100E200090910606892B49F40E942D0680E090E0FF
:100E30000E9497020196D1F3B4C080E090E00E9436
:100E400097026C01E12CF12C3AC0AA24BB2488152E
:100E50009905AA05BB0598F4E0910506F0910606F0
:100E600082809380A480B58080E090E00E94970209
:100E7000A0E0B0E08C159D05AE05BF0530F7A09150
:100E80000506B09106068D919C91119790930606E8
:100E90008093050612961D921D921D921C92159725
:100EA00016961D921D921D921C9219971A96ED91FD
:100EB000FC911B971C968D919C911D970995E09133
:100EC0000506F0910606309789F480E090E00E94D4
:100ED0009702A0E0B0E04496A11DB11D8C159D05C0
:100EE000AE05BF0598F50E942D0624C08280938030
:100EF000A480B58080E090E00E949702A0E0B0E07E
:100F00008C159D05AE05BF0508F4A6CFB501A4015B
:100F10006627772784179507A607B70708F09CCFA1
:100F2000481B590B6A0B7B0B443151056105710558
:100F300060F692CF80E090E00E949702A0E0B0E0DF
:100F4000C816D906EA06FB06A8F32BC0E0910506F1
:100F5000F09106063097B9F082809380A480B58026
:100F600084E1881A9108A108B1080E947D05DC017E
:100F7000CB014496A11DB11D88169906AA06BB0691
:100F800008F49DCF2FC080E090E00E9497024C01B2
:100F9000A12CB12C8C149D04AE04BF0430F40E942B
:100FA0002D06C12CD12C76018ACFD501C4014496DF
:100FB000A11DB11DAA27BB2788159905AA05BB0548
:100FC00060F480E090E00E949702A0E0B0E0881515
:100FD0009905AA05BB05A8F7E2CF88248A94982C26
:100FE000A12CB12C1092100610920F06C501B4016D
:100FF000FF90EF90DF90CF90BF90AF909F908F9039
:101000000C94E005FC01A0910506B0910606A81716
:10101000B90719F0A5E0B6E01DC0ED91FC91F09381
:101020000606E0930506309759F082819381A481EA
:10103000B581BC01CD01645171098109910904C0D8
:101040006FEF7FEF80E090E00C94E005E817F90780
:10105000A9F0DC018D919C9111970097B9F7A3E05D
:10106000B6E08D919C911197009729F0E817F90748
:1010700029F0DC01F6CFA1E0B6E009C080819181C2
:101080008D939C930895E817F907C1F3DC018D91C6
:101090009C9111970097B9F708950F931F9300E063
:1010A00010E020E037E040E950ED63E070E080E0E0
:1010B00090E00E941B026FEF7FEFCB011F910F9119
:1010C0000C94E0054F925F926F927F928F929F9265
:1010D000AF92BF92CF92DF92EF92FF920F931F9346
:1010E000CF93DF93EC016A017B010E947D054B01E8
:1010F0005C0119821882D701C60188199909AA09C9
:10110000BB098997A105B105F0F4EE24FF2480E026
:1011100090E00E949702A0E0B0E0C816D906EA0667
:10112000FB06A8F380E090E00E949702A0E0B0E008
:101130008C159D05AE05BF05A8F3EA85FB858C855A
:101140009D850995A0C00E9403018C018A819B8125
:10115000AC81BD81892B8A2B8B2B09F090C08E81AD
:101160009F81A885B985892B8A2B8B2B09F087C095
:10117000CA82DB82EC82FD8240900B0650900C0606
:1011800060900D0670900E06C701B601645171099A
:1011900081099109681579058A059B0528F42FEFC7
:1011A000421A520A620A720A4E825F826886798601
:1011B00040900B0650900C0660900D0670900E0645
:1011C0002E813F814885598542165306640675066F
:1011D00088F0209107063091080640910906509149
:1011E0000A062B013C0144245524241535054605E7
:1011F000570521F0CE010E94EE053DC0AA24BB2474
:1012000086169706A806B90618F4A5E0B6E021C030
:10121000A3E0B6E0ED91FC911197309759F042812F
:10122000538164817581C416D506E606F70610F071
:10123000DF01F0CFF983E883CD93DC931CC082807B
:101240009380A480B580C814D904EA04FB0430F06C
:10125000DF01ED91FC911197309789F7F983E883CD
:10126000CD93DC932091050630910606C217D30773
:1012700011F40E94E005C8010E940F0104C0CE01D4
:101280000E94020875CF80E090E0DF91CF911F911E
:101290000F91FF90EF90DF90CF90BF90AF909F9015
:1012A0008F907F906F905F904F9008950F931F9352
:1012B000CF93DF93EC010E9403018C018A819B8113
:1012C000AC81BD81892B8A2B8B2B79F48E819F81F8
:1012D000A885B985892B8A2B8B2B39F4C801DF911E
:1012E000CF911F910F910C940F01CE010E94020823
:1012F000F5CF8F929F92AF92BF92CF92DF92EF92F3
:10130000FF92CF93DF93FC0122853385232B09F4D1
:1013100047C06A017B01EC010E945609F8E2CF1632
:10132000D104E104F10438F580E090E00E949702D6
:101330004C01A12CB12C80E090E00E949702A0E02B
:10134000B0E088199909AA09BB09AA27BB278C15FF
:101350009D05AE05BF0578F3EA85FB858C859D85E7
:10136000DF91CF91FF90EF90DF90CF90BF90AF9043
:101370009F908F9009940E947D05AB01BC014C0D9C
:101380005D1D6E1D7F1DCE01DF91CF91FF90EF900F
:10139000DF90CF90BF90AF909F908F900C94620899
:1013A000DF91CF91FF90EF90DF90CF90BF90AF9003
:1013B0009F908F9008954F925F926F927F928F923D
:1013C0009F92AF92BF92EF92FF920F931F93CF9392
:1013D000DF93011511052105310581F4DF91CF91CE
:1013E0001F910F91FF90EF90BF90AF909F908F90C3
:1013F0007F906F905F904F900C947909280139018C
:101400004A015B01EC010E9403017C018A819B81FE
:10141000AC81BD81892B8A2B8B2B09F044C08E8136
:101420009F81A885B985892B8A2B8B2BE1F5BE017D
:101430006A5F7F4FCE0102960E94A9058A819B8137
:10144000AC81BD81880D991DAA1DBB1D8A839B831C
:10145000AC83BD830E811F8128853985040D151D40
:10146000261D371D88159905AA05BB0520F40F5FB9
:101470001F4F2F4F3F4F0E831F8328873987CE0181
:101480000E94EE05C701DF91CF911F910F91FF9050
:10149000EF90BF90AF909F908F907F906F905F90F4
:1014A0004F900C940F01CE010E940208C0CF0C9403
:1014B000AB0C8F929F92AF92BF92CF92DF92EF923E
:1014C000FF926B017C0180E090E00E9497024C014A
:1014D000A12CB12CEE24FF2480E090E00E94970222
:1014E000A0E0B0E088199909AA09BB09AA27BB277F
:1014F0008C159D05AE05BF0578F3FF90EF90DF904A
:10150000CF90BF90AF909F908F9008954F925F9231
:101510006F927F928F929F92AF92BF92EF92FF92C3
:101520000F931F93CF93DF93CDB7DEB760970FB6BE
:10153000F894DEBF0FBECDBF4B015C0129013A011B
:101540000E941901892B71F045284628472829F067
:101550006FEA71E083E00E940103C501B4010E94BB
:10156000590A26C0188A1F8687E59AE09C878B87D0
:101570007E018FE0E80EF11CFE86ED861F82188644
:1015800019861A861B821C821D821E8261E070E011
:10159000C7010E94650C93018201B501A401CE012F
:1015A00001960E94DB0961E070E0C7010E94650CB2
:1015B00060960FB6F894DEBF0FBECDBFDF91CF911E
:1015C0001F910F91FF90EF90BF90AF909F908F90E1
:1015D0007F906F905F904F9008950E940301FFCF1E
:1015E00008950E940901A091B902B091BA02CD916B
:1015F000CDBFDD91DEBFFF91EF91DF91CF91BF9124
:10160000AF919F918F917F916F915F914F913F919A
:101610002F911F910F91FF90EF90DF90CF90BF908F
:10162000AF909F908F907F906F905F904F903F9082
:101630002F901F900F900FBE0F900895240F351F0D
:10164000F90131974FEA408331974EEF408347E2EB
:1016500054E031974083319750833197808331979D
:10166000908331971082319780E880833197108280
:10167000C9014F971292E817F907E1F7F901B097FE
:101680006083319770838AE182938F5F8032E1F7C4
:10169000C901889708950E943C030E94F10A0E94A4
:1016A0001901892B09F05AC00F920FB6F8940F92C6
:1016B0001F9211242F923F924F925F926F927F92CE
:1016C0008F929F92AF92BF92CF92DF92EF92FF9252
:1016D0000F931F932F933F934F935F936F937F933A
:1016E0008F939F93AF93BF93CF93DF93EF93FF932A
:1016F000A091B902B091BA020DB60D920EB60D923C
:101700000E943C03A091B902B091BA02CD91CDBF25
:10171000DD91DEBFFF91EF91DF91CF91BF91AF914E
:101720009F918F917F916F915F914F913F912F91F9
:101730001F910F91FF90EF90DF90CF90BF90AF90EF
:101740009F908F907F906F905F904F903F902F90E1
:101750001F900F900FBE0F900895089581E090E0C4
:101760009093FE028093FD0208950F920FB6F894B5
:101770000F921F9211242F923F924F925F926F927D
:101780007F928F929F92AF92BF92CF92DF92EF9211
:10179000FF920F931F932F933F934F935F936F93FA
:1017A0007F938F939F93AF93BF93CF93DF93EF93E9
:1017B000FF93A091B902B091BA020DB60D920EB688
:1017C0000D920E943C03A091B902B091BA02CD9152
:1017D000CDBFDD91DEBFFF91EF91DF91CF91BF9142
:1017E000AF919F918F917F916F915F914F913F91B9
:1017F0002F911F910F91FF90EF90DF90CF90BF90AE
:10180000AF909F908F907F906F905F904F903F90A0
:101810002F901F900F900FBE0F9018950895A895C8
:101820000FB6F894A895809160008861809360005D
:10183000109260000FBE0C94110D1F920F920FB604
:101840000F9211242D9A68E670E080E00E94010357
:101850000C944D08CF93DF931F92CDB7DEB761E0B4
:1018600070E0CE0101960E94FE0C8981082E000CCA
:10187000990B0F90DF91CF910895CF93DF931F9233
:10188000CDB7DEB7898361E070E0CE0101960E949A
:10189000040D80E090E00F90DF91CF9108950E94B9
:1018A000ED0CE1E5F6E08EE191E09383828380E147
:1018B00091E09183808385EF91E00C94120E63E0B8
:1018C00085E10E94B5012D980895EF92FF920F9344
:1018D0001F93CF93DF93EC018B010E9403017C01E6
:1018E00088819981892B41F48FEF9FEF99838883B9
:1018F000C7010E940F0120C0012B09F10091B9021C
:101900001091BA0262E070E0C8010E947B038881F6
:101910009981019641F4C801069699838883F8015C
:101920001782168204C0B801CE010E949B04C70131
:101930000E940F010E944F0B81E090E005C0C7019B
:101940000E940F0180E090E0DF91CF911F910F91F5
:10195000FF90EF900895EF92FF920F931F93CF9314
:10196000DF938C010E9403017C01D801ED91FC9171
:10197000309739F0EF3FBFEFFB0761F4F8011182B8
:101980001082C701DF91CF911F910F91FF90EF90CF
:101990000C940F0180819181D8018D939C93EF016C
:1019A00026976BE070E0CE010E947B03F8018081F6
:1019B0009181892B21F48FEF9FEF91838083CB81DD
:1019C000D0E0C7010E940F01CE01DF91CF911F919E
:1019D0000F91FF90EF900C940D040F931F930CE266
:1019E00011E022E13DE040E855E260E070E080E097
:1019F00090E00E9421011F910F910895AB01BC015D
:101A00008CE291E00C94240DCF93DF93EB01AB01BA
:101A1000BC0180E090E00E946801CE01DF91CF918F
:101A2000089508950F931F93CF93DF93EC010E94C5
:101A30008E0D8C01CE0108960E94AB0CC801DF917F
:101A4000CF911F910F910895CF92DF92EF92FF9265
:101A50000F931F93CF93DF93EC018B017A016C01FD
:101A600088E0C80ED11CA701B801CE010E94640D08
:101A7000009731F461E070E0C6010E94650CF3CF7D
:101A8000DF91CF911F910F91FF90EF90DF90CF905A
:101A90000895DC018D919C91119714962D913C91A4
:101AA0001597A9014F5F5F4F15965C934E9314975E
:101AB0001296ED91FC91139731972E233F23FC0151
:101AC000E20FF31F80810895CF92DF92EF92FF9291
:101AD0000F931F93CF93DF937C016A018B01EA017F
:101AE000209781F0F701248135818681978128171D
:101AF000390741F0C7010E94490DF80181938F0118
:101B00002197EECFC6018C1B9D0BDF91CF911F91CA
:101B10000F91FF90EF90DF90CF900895DC01169623
:101B20002D913C91179714964D915C9115971296B3
:101B30008D919C911397241B350B28173907B9F009
:101B4000ED91FC91119716962D913C911797A90153
:101B50004F5F5F4F17965C934E931697019728231C
:101B60003923E20FF31F608380E090E008958FEF48
:101B70009FEF0895A1E21A2EAA1BBB1BFD010DC009
:101B8000AA1FBB1FEE1FFF1FA217B307E407F5072D
:101B900020F0A21BB30BE40BF50B661F771F881F09
:101BA000991F1A9469F760957095809590959B019F
:101BB000AC01BD01CF0108950E94ED0DA59F900DD0
:101BC000B49F900DA49F800D911D11240895EE0FD8
:101BD000FF1F0590F491E02D0994A29FB001B39FDF
:101BE000C001A39F700D811D1124911DB29F700D26
:101BF000811D1124911D0895A0E0B0E0E2E0FEE017
:101C00000C94E310AE014B5F5F4FFA01619171914B
:101C1000AF0180915306909154060E94420EE2E07B
:101C20000C94FF100F931F93CF93DF93E091530613
:101C3000F0915406238121FF1BC08C01D0E0C0E04D
:101C4000F80181918F016091530670915406DB0178
:101C50001896ED91FC911997882331F00995892BFD
:101C600079F3DFEFCFEFECCF8AE00995892B19F0FC
:101C70008FEF9FEF02C08D2F9C2FDF91CF911F918F
:101C80000F910895ABE0B0E0E8E4FEE00C94D310CF
:101C90006C017B018A01FC0117821682838181FF1E
:101CA000CCC1CE0101963C01F6019381F70193FD71
:101CB000859193FF81917F01882309F4BAC1853210
:101CC00039F493FD859193FF81917F01853229F449
:101CD000B60190E00E943910E7CF912C212C312CD5
:101CE000FFE1F315D8F08B3279F038F4803279F0D7
:101CF0008332A1F4232D20611DC08D3261F0803329
:101D000069F4232D216016C0832D8260382EE32DC7
:101D1000E4603E2E2AC0F32DF8601DC037FC2DC0B4
:101D200020ED280F2A3040F08E32B9F436FC81C104
:101D3000232D2064322E19C036FE06C08AE0989EFC
:101D4000200D1124922E11C0EAE02E9E200D1124A8
:101D5000222EF32DF0623F2E08C08C3621F4832D05
:101D60008068382E02C0883641F4F70193FD8591D2
:101D700093FF81917F018111B3CF982F9F7D95545F
:101D8000933028F40C5F1F4F9FE399830DC0833677
:101D900031F0833771F0833509F059C021C0F80163
:101DA000808189830E5F1F4F88248394912C530177
:101DB00013C02801F2E04F0E511CF801A080B18041
:101DC00036FE03C0692D70E002C06FEF7FEFC501E2
:101DD0000E942E104C018201F32DFF773F2E16C07A
:101DE000280122E0420E511CF801A080B18036FE8D
:101DF00003C0692D70E002C06FEF7FEFC5010E9444
:101E000023104C01F32DF0683F2E820133FC1BC0E0
:101E1000822D90E088169906B0F4B60180E290E039
:101E20000E9439102A94F4CFF50137FC859137FED2
:101E300081915F01B60190E00E94391021102A942F
:101E400021E0821A91088114910471F7E8C0843668
:101E500011F0893641F5F80137FE07C060817181C4
:101E6000828193810C5F1F4F08C060817181072EB2
:101E7000000C880B990B0E5F1F4FF32DFF763F2E42
:101E800097FF09C090958095709561957F4F8F4F12
:101E90009F4FF0683F2E2AE030E0A3010E947510AA
:101EA000882E861845C0853731F4232D2F7EB22E1B
:101EB0002AE030E025C0932D997FB92E8F36C1F0EE
:101EC00018F4883579F0B5C0803719F0883721F0DB
:101ED000B0C0E92FE061BE2EB4FE0DC0FB2DF46052
:101EE000BF2E09C034FE0AC0292F2660B22E06C0BC
:101EF00028E030E005C020E130E002C020E132E01F
:101F0000F801B7FE07C060817181828193810C5F07
:101F10001F4F06C06081718180E090E00E5F1F4F0F
:101F2000A3010E947510882E8618FB2DFF773F2E87
:101F300036FE0DC0232D2E7FA22E891458F434FEB8
:101F40000BC032FC09C0832D8E7EA82E05C0B82C94
:101F5000A32C03C0B82C01C0B92CA4FE0FC0FE01F5
:101F6000E80DF11D8081803321F49A2D997EA92EF0
:101F700009C0A2FE06C0B394B39404C08A2D86782B
:101F800009F0B394A3FC11C0A0FE06C0B21488F4FB
:101F9000280C922C9B180EC0B21460F4B60180E29B
:101FA00090E00E943910B394F7CFB21418F42B18B4
:101FB00002C0982C212CA4FE10C0B60180E390E052
:101FC0000E943910A2FE17C0A1FC03C088E790E070
:101FD00002C088E590E0B6010CC08A2D867859F0E1
:101FE000A1FE02C08BE201C080E2A7FC8DE2B60137
:101FF00090E00E943910891438F4B60180E390E033
:102000000E9439109A94F7CF8A94F301E80DF11DDC
:102010008081B60190E00E9439108110F5CF222016
:1020200009F442CEB60180E290E00E9439102A9471
:10203000F6CFF6018681978102C08FEF9FEF2B9636
:10204000E2E10C94EF10FC0105906150704001102A
:10205000D8F7809590958E0F9F1F0895FC016150D1
:10206000704001900110D8F7809590958E0F9F1FBA
:1020700008950F931F93CF93DF93FB01238121FDDD
:1020800003C08FEF9FEF2CC022FF16C046815781FF
:10209000248135814217530744F4A081B1819D0109
:1020A0002F5F3F4F318320838C93268137812F5FB1
:1020B0003F4F3783268314C08B01EC01FB01008462
:1020C000F185E02D0995892BE1F6D80116968D91C1
:1020D0009C911797019617969C938E931697CE0115
:1020E000DF91CF911F910F910895FA01AA2728300F
:1020F00051F1203181F1E8946F936E7F6E5F7F4FD5
:102100008F4F9F4FAF4FB1E03ED0B4E03CD0670F50
:10211000781F891F9A1FA11D680F791F8A1F911DA3
:10212000A11D6A0F711D811D911DA11D20D009F4F3
:1021300068943F912AE0269F11243019305D319335
:10214000DEF6CF010895462F4770405D4193B3E01E
:102150000FD0C9F7F6CF462F4F70405D4A3318F0C5
:10216000495D31FD4052419302D0A9F7EACFB4E076
:10217000A6959795879577956795BA95C9F700972E
:102180006105710508959B01AC010A2E06945795CF
:10219000479537952795BA95C9F7620F731F841F26
:1021A000951FA01D08952F923F924F925F926F92BC
:1021B0007F928F929F92AF92BF92CF92DF92EF92D7
:1021C000FF920F931F93CF93DF93CDB7DEB7CA1B58
:1021D000DB0B0FB6F894DEBF0FBECDBF09942A8883
:1021E000398848885F846E847D848C849B84AA842B
:1021F000B984C884DF80EE80FD800C811B81AA81B8
:10220000B981CE0FD11D0FB6F894DEBF0FBECDBF82
:08221000ED010895F894FFCFE1
:1022180080006F003600000000000000EB01F001B4
:10222800000000010000000000002A0C000000006F
:102238000002000000003D0C0000000011064000F4
:10224800000000000000496E746572727570742099
:10225800686173206F63637572656400496E7465A5
:1022680072727570742050726F6772616D2052754A
:102278006E6E696E672E2E2E00000306080A5374D0
:1022880061636B20506F696E7465723A20307825EF
:102298003034780A002A2A2A2052494F54206B6584
:1022A800726E656C2070616E69633A0A25730A0A5A
:1022B800002A2A2A2068616C7465642E0A0A00467E
:1022C80041494C454420415353455254494F4E2EA1
:1022D800006D61696E28293A205468697320697312
:1022E8002052494F5421202856657273696F6E3AFF
:1022F80020323031392E3031290A0069646C65008A
:082308006D61696E000C00001C
:040000030000023ABD
:00000001FF
